{"abi":[{"type":"constructor","inputs":[{"name":"_usdc","type":"address","internalType":"address"},{"name":"_signer","type":"address","internalType":"address"},{"name":"_rewardAmount","type":"uint256","internalType":"uint256"}],"stateMutability":"nonpayable"},{"type":"function","name":"claimReward","inputs":[{"name":"recipient","type":"address","internalType":"address"},{"name":"stationId","type":"bytes32","internalType":"bytes32"},{"name":"submissionId","type":"uint256","internalType":"uint256"},{"name":"deadline","type":"uint256","internalType":"uint256"},{"name":"signature","type":"bytes","internalType":"bytes"}],"outputs":[],"stateMutability":"nonpayable"},{"type":"function","name":"owner","inputs":[],"outputs":[{"name":"","type":"address","internalType":"address"}],"stateMutability":"view"},{"type":"function","name":"rewardAmount","inputs":[],"outputs":[{"name":"","type":"uint256","internalType":"uint256"}],"stateMutability":"view"},{"type":"function","name":"setRewardAmount","inputs":[{"name":"newAmount","type":"uint256","internalType":"uint256"}],"outputs":[],"stateMutability":"nonpayable"},{"type":"function","name":"setSigner","inputs":[{"name":"newSigner","type":"address","internalType":"address"}],"outputs":[],"stateMutability":"nonpayable"},{"type":"function","name":"signer","inputs":[],"outputs":[{"name":"","type":"address","internalType":"address"}],"stateMutability":"view"},{"type":"function","name":"transferOwnership","inputs":[{"name":"newOwner","type":"address","internalType":"address"}],"outputs":[],"stateMutability":"nonpayable"},{"type":"function","name":"usdc","inputs":[],"outputs":[{"name":"","type":"address","internalType":"address"}],"stateMutability":"view"},{"type":"function","name":"usedDigests","inputs":[{"name":"","type":"bytes32","internalType":"bytes32"}],"outputs":[{"name":"","type":"bool","internalType":"bool"}],"stateMutability":"view"},{"type":"event","name":"OwnerUpdated","inputs":[{"name":"newOwner","type":"address","indexed":true,"internalType":"address"}],"anonymous":false},{"type":"event","name":"RewardAmountUpdated","inputs":[{"name":"newAmount","type":"uint256","indexed":false,"internalType":"uint256"}],"anonymous":false},{"type":"event","name":"RewardClaimed","inputs":[{"name":"recipient","type":"address","indexed":true,"internalType":"address"},{"name":"stationId","type":"bytes32","indexed":true,"internalType":"bytes32"},{"name":"submissionId","type":"uint256","indexed":false,"internalType":"uint256"},{"name":"amount","type":"uint256","indexed":false,"internalType":"uint256"}],"anonymous":false},{"type":"event","name":"SignerUpdated","inputs":[{"name":"newSigner","type":"address","indexed":true,"internalType":"address"}],"anonymous":false},{"type":"error","name":"InvalidSignature","inputs":[]},{"type":"error","name":"InvalidSignatureLength","inputs":[]},{"type":"error","name":"InvalidSignatureS","inputs":[]},{"type":"error","name":"InvalidSignatureV","inputs":[]}],"bytecode":{"object":"0x60a060405234801562000010575f80fd5b50604051620018e5380380620018e5833981810160405281019062000036919062000278565b5f73ffffffffffffffffffffffffffffffffffffffff168373ffffffffffffffffffffffffffffffffffffffff1603620000a7576040517f08c379a00000000000000000000000000000000000000000000000000000000081526004016200009e906200032f565b60405180910390fd5b5f73ffffffffffffffffffffffffffffffffffffffff168273ffffffffffffffffffffffffffffffffffffffff160362000118576040517f08c379a00000000000000000000000000000000000000000000000000000000081526004016200010f906200039d565b60405180910390fd5b335f806101000a81548173ffffffffffffffffffffffffffffffffffffffff021916908373ffffffffffffffffffffffffffffffffffffffff1602179055508273ffffffffffffffffffffffffffffffffffffffff1660808173ffffffffffffffffffffffffffffffffffffffff16815250508160015f6101000a81548173ffffffffffffffffffffffffffffffffffffffff021916908373ffffffffffffffffffffffffffffffffffffffff16021790555080600281905550505050620003bd565b5f80fd5b5f73ffffffffffffffffffffffffffffffffffffffff82169050919050565b5f6200020a82620001df565b9050919050565b6200021c81620001fe565b811462000227575f80fd5b50565b5f815190506200023a8162000211565b92915050565b5f819050919050565b620002548162000240565b81146200025f575f80fd5b50565b5f81519050620002728162000249565b92915050565b5f805f60608486031215620002925762000291620001db565b5b5f620002a1868287016200022a565b9350506020620002b4868287016200022a565b9250506040620002c78682870162000262565b9150509250925092565b5f82825260208201905092915050565b7f55534443206164647265737320726571756972656400000000000000000000005f82015250565b5f62000317601583620002d1565b91506200032482620002e1565b602082019050919050565b5f6020820190508181035f830152620003488162000309565b9050919050565b7f7369676e657220616464726573732072657175697265640000000000000000005f82015250565b5f62000385601783620002d1565b915062000392826200034f565b602082019050919050565b5f6020820190508181035f830152620003b68162000377565b9050919050565b608051611508620003dd5f395f81816101d4015261070e01526115085ff3fe608060405234801561000f575f80fd5b5060043610610091575f3560e01c8063a8a65a7811610064578063a8a65a781461010b578063c7f81b9314610127578063d39c4de714610143578063f2fde38b14610173578063f7b2a7be1461018f57610091565b8063238ac933146100955780633e413bee146100b35780636c19e783146100d15780638da5cb5b146100ed575b5f80fd5b61009d6101ad565b6040516100aa9190610c19565b60405180910390f35b6100bb6101d2565b6040516100c89190610c19565b60405180910390f35b6100eb60048036038101906100e69190610c64565b6101f6565b005b6100f5610377565b6040516101029190610c19565b60405180910390f35b61012560048036038101906101209190610cc2565b61039a565b005b610141600480360381019061013c9190610d81565b6104aa565b005b61015d60048036038101906101589190610e17565b610846565b60405161016a9190610e5c565b60405180910390f35b61018d60048036038101906101889190610c64565b610863565b005b6101976109e3565b6040516101a49190610e84565b60405180910390f35b60015f9054906101000a900473ffffffffffffffffffffffffffffffffffffffff1681565b7f000000000000000000000000000000000000000000000000000000000000000081565b5f8054906101000a900473ffffffffffffffffffffffffffffffffffffffff1673ffffffffffffffffffffffffffffffffffffffff163373ffffffffffffffffffffffffffffffffffffffff1614610283576040517f08c379a000000000000000000000000000000000000000000000000000000000815260040161027a90610ef7565b60405180910390fd5b5f73ffffffffffffffffffffffffffffffffffffffff168173ffffffffffffffffffffffffffffffffffffffff16036102f1576040517f08c379a00000000000000000000000000000000000000000000000000000000081526004016102e890610f5f565b60405180910390fd5b8060015f6101000a81548173ffffffffffffffffffffffffffffffffffffffff021916908373ffffffffffffffffffffffffffffffffffffffff1602179055508073ffffffffffffffffffffffffffffffffffffffff167f5553331329228fbd4123164423717a4a7539f6dfa1c3279a923b98fd681a6c7360405160405180910390a250565b5f8054906101000a900473ffffffffffffffffffffffffffffffffffffffff1681565b5f8054906101000a900473ffffffffffffffffffffffffffffffffffffffff1673ffffffffffffffffffffffffffffffffffffffff163373ffffffffffffffffffffffffffffffffffffffff1614610427576040517f08c379a000000000000000000000000000000000000000000000000000000000815260040161041e90610ef7565b60405180910390fd5b5f8111610469576040517f08c379a000000000000000000000000000000000000000000000000000000000815260040161046090610fc7565b60405180910390fd5b806002819055507f9639dea65e74b72b1b86ccf3e4f9b6d23b88d2aad2f103d0b3afe394e67edade8160405161049f9190610e84565b60405180910390a150565b824211156104ed576040517f08c379a00000000000000000000000000000000000000000000000000000000081526004016104e49061102f565b60405180910390fd5b5f73ffffffffffffffffffffffffffffffffffffffff168673ffffffffffffffffffffffffffffffffffffffff160361055b576040517f08c379a000000000000000000000000000000000000000000000000000000000815260040161055290611097565b60405180910390fd5b5f30878787600254886040516020016105799695949392919061113a565b6040516020818303038152906040528051906020012090505f61059b826109e9565b905060035f8281526020019081526020015f205f9054906101000a900460ff16156105fb576040517f08c379a00000000000000000000000000000000000000000000000000000000081526004016105f2906111f3565b60405180910390fd5b5f61065285858080601f0160208091040260200160405190810160405280939291908181526020018383808284375f81840152601f19601f8201169050808301925050505050505083610a1890919063ffffffff16565b905060015f9054906101000a900473ffffffffffffffffffffffffffffffffffffffff1673ffffffffffffffffffffffffffffffffffffffff168173ffffffffffffffffffffffffffffffffffffffff16146106e3576040517f08c379a00000000000000000000000000000000000000000000000000000000081526004016106da9061125b565b60405180910390fd5b600160035f8481526020019081526020015f205f6101000a81548160ff0219169083151502179055507f000000000000000000000000000000000000000000000000000000000000000073ffffffffffffffffffffffffffffffffffffffff1663a9059cbb8a6002546040518363ffffffff1660e01b8152600401610769929190611279565b6020604051808303815f875af1158015610785573d5f803e3d5ffd5b505050506040513d601f19601f820116820180604052508101906107a991906112ca565b6107e8576040517f08c379a00000000000000000000000000000000000000000000000000000000081526004016107df9061133f565b60405180910390fd5b878973ffffffffffffffffffffffffffffffffffffffff167fe49e2546e74f6514760ca153de5ad87dd20edfb3feac98739e797093813a33548960025460405161083392919061135d565b60405180910390a3505050505050505050565b6003602052805f5260405f205f915054906101000a900460ff1681565b5f8054906101000a900473ffffffffffffffffffffffffffffffffffffffff1673ffffffffffffffffffffffffffffffffffffffff163373ffffffffffffffffffffffffffffffffffffffff16146108f0576040517f08c379a00000000000000000000000000000000000000000000000000000000081526004016108e790610ef7565b60405180910390fd5b5f73ffffffffffffffffffffffffffffffffffffffff168173ffffffffffffffffffffffffffffffffffffffff160361095e576040517f08c379a0000000000000000000000000000000000000000000000000000000008152600401610955906113ce565b60405180910390fd5b805f806101000a81548173ffffffffffffffffffffffffffffffffffffffff021916908373ffffffffffffffffffffffffffffffffffffffff1602179055508073ffffffffffffffffffffffffffffffffffffffff167f4ffd725fc4a22075e9ec71c59edf9c38cdeb588a91b24fc5b61388c5be41282b60405160405180910390a250565b60025481565b5f816040516020016109fb9190611440565b604051602081830303815290604052805190602001209050919050565b5f6041825114610a54576040517f4be6321b00000000000000000000000000000000000000000000000000000000815260040160405180910390fd5b5f805f602085015192506040850151915060608501515f1a90507f7fffffffffffffffffffffffffffffffffffffffffffffffffffffffffffffff825f1c1115610aca576040517fbf4bf5b800000000000000000000000000000000000000000000000000000000815260040160405180910390fd5b601b8160ff1614158015610ae25750601c8160ff1614155b15610b19576040517fff551e8900000000000000000000000000000000000000000000000000000000815260040160405180910390fd5b5f6001878386866040515f8152602001604052604051610b3c949392919061148f565b6020604051602081039080840390855afa158015610b5c573d5f803e3d5ffd5b5050506020604051035190505f73ffffffffffffffffffffffffffffffffffffffff168173ffffffffffffffffffffffffffffffffffffffff1603610bcd576040517f8baa579f00000000000000000000000000000000000000000000000000000000815260040160405180910390fd5b8094505050505092915050565b5f73ffffffffffffffffffffffffffffffffffffffff82169050919050565b5f610c0382610bda565b9050919050565b610c1381610bf9565b82525050565b5f602082019050610c2c5f830184610c0a565b92915050565b5f80fd5b5f80fd5b610c4381610bf9565b8114610c4d575f80fd5b50565b5f81359050610c5e81610c3a565b92915050565b5f60208284031215610c7957610c78610c32565b5b5f610c8684828501610c50565b91505092915050565b5f819050919050565b610ca181610c8f565b8114610cab575f80fd5b50565b5f81359050610cbc81610c98565b92915050565b5f60208284031215610cd757610cd6610c32565b5b5f610ce484828501610cae565b91505092915050565b5f819050919050565b610cff81610ced565b8114610d09575f80fd5b50565b5f81359050610d1a81610cf6565b92915050565b5f80fd5b5f80fd5b5f80fd5b5f8083601f840112610d4157610d40610d20565b5b8235905067ffffffffffffffff811115610d5e57610d5d610d24565b5b602083019150836001820283011115610d7a57610d79610d28565b5b9250929050565b5f805f805f8060a08789031215610d9b57610d9a610c32565b5b5f610da889828a01610c50565b9650506020610db989828a01610d0c565b9550506040610dca89828a01610cae565b9450506060610ddb89828a01610cae565b935050608087013567ffffffffffffffff811115610dfc57610dfb610c36565b5b610e0889828a01610d2c565b92509250509295509295509295565b5f60208284031215610e2c57610e2b610c32565b5b5f610e3984828501610d0c565b91505092915050565b5f8115159050919050565b610e5681610e42565b82525050565b5f602082019050610e6f5f830184610e4d565b92915050565b610e7e81610c8f565b82525050565b5f602082019050610e975f830184610e75565b92915050565b5f82825260208201905092915050565b7f4e6f74206f776e657200000000000000000000000000000000000000000000005f82015250565b5f610ee1600983610e9d565b9150610eec82610ead565b602082019050919050565b5f6020820190508181035f830152610f0e81610ed5565b9050919050565b7f7a65726f207369676e65720000000000000000000000000000000000000000005f82015250565b5f610f49600b83610e9d565b9150610f5482610f15565b602082019050919050565b5f6020820190508181035f830152610f7681610f3d565b9050919050565b7f696e76616c696420616d6f756e740000000000000000000000000000000000005f82015250565b5f610fb1600e83610e9d565b9150610fbc82610f7d565b602082019050919050565b5f6020820190508181035f830152610fde81610fa5565b9050919050565b7f5369676e617475726520657870697265640000000000000000000000000000005f82015250565b5f611019601183610e9d565b915061102482610fe5565b602082019050919050565b5f6020820190508181035f8301526110468161100d565b9050919050565b7f496e76616c696420726563697069656e740000000000000000000000000000005f82015250565b5f611081601183610e9d565b915061108c8261104d565b602082019050919050565b5f6020820190508181035f8301526110ae81611075565b9050919050565b5f8160601b9050919050565b5f6110cb826110b5565b9050919050565b5f6110dc826110c1565b9050919050565b6110f46110ef82610bf9565b6110d2565b82525050565b5f819050919050565b61111461110f82610ced565b6110fa565b82525050565b5f819050919050565b61113461112f82610c8f565b61111a565b82525050565b5f61114582896110e3565b60148201915061115582886110e3565b6014820191506111658287611103565b6020820191506111758286611123565b6020820191506111858285611123565b6020820191506111958284611123565b602082019150819050979650505050505050565b7f416c726561647920636c61696d656400000000000000000000000000000000005f82015250565b5f6111dd600f83610e9d565b91506111e8826111a9565b602082019050919050565b5f6020820190508181035f83015261120a816111d1565b9050919050565b7f496e76616c6964207369676e65720000000000000000000000000000000000005f82015250565b5f611245600e83610e9d565b915061125082611211565b602082019050919050565b5f6020820190508181035f83015261127281611239565b9050919050565b5f60408201905061128c5f830185610c0a565b6112996020830184610e75565b9392505050565b6112a981610e42565b81146112b3575f80fd5b50565b5f815190506112c4816112a0565b92915050565b5f602082840312156112df576112de610c32565b5b5f6112ec848285016112b6565b91505092915050565b7f55534443207472616e73666572206661696c65640000000000000000000000005f82015250565b5f611329601483610e9d565b9150611334826112f5565b602082019050919050565b5f6020820190508181035f8301526113568161131d565b9050919050565b5f6040820190506113705f830185610e75565b61137d6020830184610e75565b9392505050565b7f7a65726f206f776e6572000000000000000000000000000000000000000000005f82015250565b5f6113b8600a83610e9d565b91506113c382611384565b602082019050919050565b5f6020820190508181035f8301526113e5816113ac565b9050919050565b5f81905092915050565b7f19457468657265756d205369676e6564204d6573736167653a0a3332000000005f82015250565b5f61142a601c836113ec565b9150611435826113f6565b601c82019050919050565b5f61144a8261141e565b91506114568284611103565b60208201915081905092915050565b61146e81610ced565b82525050565b5f60ff82169050919050565b61148981611474565b82525050565b5f6080820190506114a25f830187611465565b6114af6020830186611480565b6114bc6040830185611465565b6114c96060830184611465565b9594505050505056fea2646970667358221220f948ab35b00d146a8384ba9b1d26f6aa93b8a70ddbe87ae347c6cf4ca94742e664736f6c63430008140033","linkReferences":{}},"methodIdentifiers":{"claimReward(address,bytes32,uint256,uint256,bytes)":"c7f81b93","owner()":"8da5cb5b","rewardAmount()":"f7b2a7be","setRewardAmount(uint256)":"a8a65a78","setSigner(address)":"6c19e783","signer()":"238ac933","transferOwnership(address)":"f2fde38b","usdc()":"3e413bee","usedDigests(bytes32)":"d39c4de7"},"id":0}