{"abi":[{"type":"constructor","inputs":[{"name":"_usdc","type":"address","internalType":"address"},{"name":"_signer","type":"address","internalType":"address"}],"stateMutability":"nonpayable"},{"type":"function","name":"batchPayout","inputs":[{"name":"recipients","type":"address[]","internalType":"address[]"},{"name":"stationIds","type":"bytes32[]","internalType":"bytes32[]"},{"name":"submissionIds","type":"uint256[]","internalType":"uint256[]"},{"name":"amounts","type":"uint256[]","internalType":"uint256[]"},{"name":"deadlines","type":"uint256[]","internalType":"uint256[]"},{"name":"signatures","type":"bytes[]","internalType":"bytes[]"}],"outputs":[],"stateMutability":"nonpayable"},{"type":"function","name":"claimReward","inputs":[{"name":"recipient","type":"address","internalType":"address"},{"name":"stationId","type":"bytes32","internalType":"bytes32"},{"name":"submissionId","type":"uint256","internalType":"uint256"},{"name":"amount","type":"uint256","internalType":"uint256"},{"name":"deadline","type":"uint256","internalType":"uint256"},{"name":"signature","type":"bytes","internalType":"bytes"}],"outputs":[],"stateMutability":"nonpayable"},{"type":"function","name":"owner","inputs":[],"outputs":[{"name":"","type":"address","internalType":"address"}],"stateMutability":"view"},{"type":"function","name":"setSigner","inputs":[{"name":"newSigner","type":"address","internalType":"address"}],"outputs":[],"stateMutability":"nonpayable"},{"type":"function","name":"signer","inputs":[],"outputs":[{"name":"","type":"address","internalType":"address"}],"stateMutability":"view"},{"type":"function","name":"transferOwnership","inputs":[{"name":"newOwner","type":"address","internalType":"address"}],"outputs":[],"stateMutability":"nonpayable"},{"type":"function","name":"usdc","inputs":[],"outputs":[{"name":"","type":"address","internalType":"address"}],"stateMutability":"view"},{"type":"function","name":"usedDigests","inputs":[{"name":"","type":"bytes32","internalType":"bytes32"}],"outputs":[{"name":"","type":"bool","internalType":"bool"}],"stateMutability":"view"},{"type":"function","name":"withdrawUSDC","inputs":[{"name":"amount","type":"uint256","internalType":"uint256"}],"outputs":[],"stateMutability":"nonpayable"},{"type":"event","name":"BatchPayout","inputs":[{"name":"recipient","type":"address","indexed":true,"internalType":"address"},{"name":"amount","type":"uint256","indexed":false,"internalType":"uint256"},{"name":"submissionId","type":"uint256","indexed":false,"internalType":"uint256"}],"anonymous":false},{"type":"event","name":"OwnerUpdated","inputs":[{"name":"newOwner","type":"address","indexed":true,"internalType":"address"}],"anonymous":false},{"type":"event","name":"RewardClaimed","inputs":[{"name":"recipient","type":"address","indexed":true,"internalType":"address"},{"name":"stationId","type":"bytes32","indexed":true,"internalType":"bytes32"},{"name":"submissionId","type":"uint256","indexed":false,"internalType":"uint256"},{"name":"amount","type":"uint256","indexed":false,"internalType":"uint256"}],"anonymous":false},{"type":"event","name":"SignerUpdated","inputs":[{"name":"newSigner","type":"address","indexed":true,"internalType":"address"}],"anonymous":false},{"type":"error","name":"InvalidSignature","inputs":[]},{"type":"error","name":"InvalidSignatureLength","inputs":[]},{"type":"error","name":"InvalidSignatureS","inputs":[]},{"type":"error","name":"InvalidSignatureV","inputs":[]}],"bytecode":{"object":"0x60a03461013e57601f610f6638819003918201601f19168301916001600160401b0383118484101761014257808492604094855283398101031261013e57610052602061004b83610156565b9201610156565b6001600160a01b0390828216156100f957169081156100b45760018060a01b03199033825f5416175f556080526001541617600155604051610dfb908161016b82396080518181816101f501528181610412015281816108740152610d4f0152f35b60405162461bcd60e51b815260206004820152601760248201527f7369676e657220616464726573732072657175697265640000000000000000006044820152606490fd5b60405162461bcd60e51b815260206004820152601560248201527f55534443206164647265737320726571756972656400000000000000000000006044820152606490fd5b5f80fd5b634e487b7160e01b5f52604160045260245ffd5b51906001600160a01b038216820361013e5756fe6080604052600480361015610012575f80fd5b5f803560e01c9182631a2650ae146100a95750508063238ac933146100a45780633e413bee1461009f5780636c19e7831461009a5780636d84b887146100955780638da5cb5b14610090578063d39c4de71461008b578063db81f99b146100865763f2fde38b14610081575f80fd5b61047e565b6103a7565b610378565b610351565b6102dd565b610235565b6101e0565b6101b8565b3461017f5760c036600319011261017f5767ffffffffffffffff813581811161017b576100d99036908401610183565b91602435818111610177576100f19036908601610183565b6044929192358281116101735761010b9036908801610183565b60649291923584811161016f576101259036908a01610183565b93909260843586811161016b5761013f9036908c01610183565b97909660a435908111610167576101649b61015c91369101610183565b9a9099610a55565b80f35b8c80fd5b8b80fd5b8980fd5b8780fd5b8580fd5b8380fd5b5080fd5b9181601f840112156101b45782359167ffffffffffffffff83116101b4576020808501948460051b0101116101b457565b5f80fd5b346101b4575f3660031901126101b4576001546040516001600160a01b039091168152602090f35b346101b4575f3660031901126101b4576040517f00000000000000000000000000000000000000000000000000000000000000006001600160a01b03168152602090f35b6001600160a01b038116036101b457565b346101b45760203660031901126101b45760043561025281610224565b5f546001600160a01b03919061026b9083163314610a1d565b1680156102aa57600180546001600160a01b031916821790557f5553331329228fbd4123164423717a4a7539f6dfa1c3279a923b98fd681a6c735f80a2005b60405162461bcd60e51b815260206004820152600b60248201526a3d32b9379039b4b3b732b960a91b6044820152606490fd5b346101b45760c03660031901126101b4576004356102fa81610224565b60a4359067ffffffffffffffff908183116101b457366023840112156101b45782600401359182116101b45736602483850101116101b457602461034f93019060843590606435906044359060243590610744565b005b346101b4575f3660031901126101b4575f546040516001600160a01b039091168152602090f35b346101b45760203660031901126101b4576004355f526002602052602060ff60405f2054166040519015158152f35b346101b45760203660031901126101b4575f805460209061040e906001600160a01b039081166103d8338214610a1d565b60405163a9059cbb60e01b81526001600160a01b0390911660048083019190915235602482015293849283919082906044820190565b03927f0000000000000000000000000000000000000000000000000000000000000000165af180156104795761034f915f9161044b575b50610701565b61046c915060203d8111610472575b61046481836105f6565b8101906106de565b5f610445565b503d61045a565b6106f6565b346101b45760203660031901126101b45760043561049b81610224565b5f805490916001600160a01b03906104b63383851614610a1d565b169081156104f3576001600160a01b031916811782557f4ffd725fc4a22075e9ec71c59edf9c38cdeb588a91b24fc5b61388c5be41282b8280a280f35b60405162461bcd60e51b815260206004820152600a6024820152693d32b9379037bbb732b960b11b6044820152606490fd5b1561052c57565b60405162461bcd60e51b815260206004820152601160248201527014da59db985d1d5c9948195e1c1a5c9959607a1b6044820152606490fd5b1561056c57565b60405162461bcd60e51b8152602060048201526011602482015270125b9d985b1a59081c9958da5c1a595b9d607a1b6044820152606490fd5b156105ac57565b60405162461bcd60e51b815260206004820152600e60248201526d125b9d985b1a5908185b5bdd5b9d60921b6044820152606490fd5b634e487b7160e01b5f52604160045260245ffd5b90601f8019910116810190811067ffffffffffffffff82111761061857604052565b6105e2565b1561062457565b60405162461bcd60e51b815260206004820152600f60248201526e105b1c9958591e4818db185a5b5959608a1b6044820152606490fd5b92919267ffffffffffffffff82116106185760405191610685601f8201601f1916602001846105f6565b8294818452818301116101b4578281602093845f960137010152565b156106a857565b60405162461bcd60e51b815260206004820152600e60248201526d24b73b30b634b21039b4b3b732b960911b6044820152606490fd5b908160209103126101b4575180151581036101b45790565b6040513d5f823e3d90fd5b1561070857565b60405162461bcd60e51b81526020600482015260146024820152731554d110c81d1c985b9cd9995c8819985a5b195960621b6044820152606490fd5b939490958542111561075590610525565b6001600160a01b0385811696909290889087906107738a1515610565565b61077e8815156105a5565b6040516bffffffffffffffffffffffff1930606090811b82166020840190815294901b1660348201526048810193909352606883018790526088830188905260a8808401919091528252906107d460c8826105f6565b5190206107e0906108ea565b916107f3835f52600260205260405f2090565b5460ff16156108019061061d565b369061080c9261065b565b610816908261093e565b6001546108309184166001600160a01b03909116146106a1565b610842905f52600260205260405f2090565b805460ff1916600117905560405163a9059cbb60e01b81526001600160a01b03949094166004850152602484018390527f000000000000000000000000000000000000000000000000000000000000000016836044815a6020945f91f1928315610479577fe49e2546e74f6514760ca153de5ad87dd20edfb3feac98739e797093813a3354936108d8915f9161044b5750610701565b604080519182526020820192909252a3565b60405160208101917f19457468657265756d205369676e6564204d6573736167653a0a3332000000008352603c820152603c81526060810181811067ffffffffffffffff8211176106185760405251902090565b906041815103610a0b57602081015191606060408301519201515f1a9060018060ff1b0383116109f957601b821415806109ee575b6109d9576109a55f93602095604051948594859094939260ff6060936080840197845216602083015260408201520152565b838052039060015afa15610479575f516001600160a01b038116156109c75790565b604051638baa579f60e01b8152600490fd5b604051600162aae17760e01b03198152600490fd5b50601c821415610973565b6040516317e97eb760e31b8152600490fd5b604051634be6321b60e01b8152600490fd5b15610a2457565b60405162461bcd60e51b81526020600482015260096024820152682737ba1037bbb732b960b91b6044820152606490fd5b9a96999498959297939190610a7460018060a01b035f54163314610a1d565b88811480610b7c575b80610b73575b80610b6a575b80610b61575b15610b24575f5b818110610aac5750505050505050505050505050565b8b8b8b8f8b8b868f93818d8f928e838f8f610acb838096928193610bbb565b610ad490610bd0565b9c610ade92610bbb565b359b610ae992610bbb565b359a610af492610bbb565b3594610aff92610bbb565b3593610b0a92610bdd565b94610b16969194610c1f565b610b1f90610b85565b610a96565b60405162461bcd60e51b8152602060048201526015602482015274082e4e4c2f240d8cadccee8d040dad2e6dac2e8c6d605b1b6044820152606490fd5b50878114610a8f565b50868114610a89565b508a8114610a83565b50898114610a7d565b5f198114610b935760010190565b634e487b7160e01b5f52601160045260245ffd5b634e487b7160e01b5f52603260045260245ffd5b9190811015610bcb5760051b0190565b610ba7565b35610bda81610224565b90565b9190811015610bcb5760051b81013590601e19813603018212156101b457019081359167ffffffffffffffff83116101b45760200182360381136101b4579190565b94959091939586421115610c3290610525565b6001600160a01b03868116979093908790610c4e8a1515610565565b610c598715156105a5565b6040516bffffffffffffffffffffffff1930606090811b82166020840190815294901b1660348201526048810193909352606883018890526088830187905260a880840191909152825290610caf60c8826105f6565b519020610cbb906108ea565b91610cce835f52600260205260405f2090565b5460ff1615610cdc9061061d565b3690610ce79261065b565b610cf1908261093e565b600154610d0b9184166001600160a01b03909116146106a1565b610d1d905f52600260205260405f2090565b805460ff1916600117905560405163a9059cbb60e01b81526001600160a01b03949094166004850152602484018290527f000000000000000000000000000000000000000000000000000000000000000016836044815a6020945f91f1928315610479577fd41ec807a25bb639b4340a527961f0eaf96b00b15eef5f7ae06609bad816374793610db3915f9161044b5750610701565b604080519182526020820192909252a256fea264697066735822122078501b701f6907ccc4713f8484cc45ce73297d125e39a6662eaf87473d02bc1264736f6c63430008140033","linkReferences":{}},"methodIdentifiers":{"batchPayout(address[],bytes32[],uint256[],uint256[],uint256[],bytes[])":"1a2650ae","claimReward(address,bytes32,uint256,uint256,uint256,bytes)":"6d84b887","owner()":"8da5cb5b","setSigner(address)":"6c19e783","signer()":"238ac933","transferOwnership(address)":"f2fde38b","usdc()":"3e413bee","usedDigests(bytes32)":"d39c4de7","withdrawUSDC(uint256)":"db81f99b"},"id":0}